{
  "contractName": "SupplyChain",
  "abi": [
    {
      "inputs": [
        {
          "internalType": "string",
          "name": "_Manufacturer_Address",
          "type": "string"
        }
      ],
      "name": "enterAddress",
      "outputs": [],
      "stateMutability": "nonpayable",
      "type": "function"
    },
    {
      "inputs": [],
      "name": "getManufacturerAddress",
      "outputs": [
        {
          "internalType": "string",
          "name": "",
          "type": "string"
        }
      ],
      "stateMutability": "view",
      "type": "function",
      "constant": true
    },
    {
      "inputs": [
        {
          "internalType": "string",
          "name": "_ProductName",
          "type": "string"
        },
        {
          "internalType": "string",
          "name": "_ProductType",
          "type": "string"
        },
        {
          "internalType": "uint256",
          "name": "_ProductPrice",
          "type": "uint256"
        },
        {
          "internalType": "address",
          "name": "_Receiver",
          "type": "address"
        },
        {
          "internalType": "address",
          "name": "_Manufacturer",
          "type": "address"
        }
      ],
      "name": "createProduct",
      "outputs": [],
      "stateMutability": "nonpayable",
      "type": "function"
    },
    {
      "inputs": [
        {
          "internalType": "address",
          "name": "addr",
          "type": "address"
        }
      ],
      "name": "ChangeState",
      "outputs": [],
      "stateMutability": "nonpayable",
      "type": "function"
    },
    {
      "inputs": [],
      "name": "getAllProductAddr",
      "outputs": [
        {
          "internalType": "address[]",
          "name": "",
          "type": "address[]"
        }
      ],
      "stateMutability": "view",
      "type": "function",
      "constant": true
    },
    {
      "inputs": [],
      "name": "getAllProduct",
      "outputs": [
        {
          "components": [
            {
              "internalType": "uint256",
              "name": "Serial",
              "type": "uint256"
            },
            {
              "internalType": "address",
              "name": "Manufacturer",
              "type": "address"
            },
            {
              "internalType": "address",
              "name": "ProductID",
              "type": "address"
            },
            {
              "internalType": "address",
              "name": "Receiver",
              "type": "address"
            },
            {
              "internalType": "string",
              "name": "ProductName",
              "type": "string"
            },
            {
              "internalType": "string",
              "name": "ProductType",
              "type": "string"
            },
            {
              "internalType": "uint256",
              "name": "ProductPrice",
              "type": "uint256"
            },
            {
              "internalType": "uint256",
              "name": "TimeStamp",
              "type": "uint256"
            },
            {
              "internalType": "string",
              "name": "State",
              "type": "string"
            }
          ],
          "internalType": "struct SupplyChain.ProductDetail[]",
          "name": "",
          "type": "tuple[]"
        }
      ],
      "stateMutability": "view",
      "type": "function",
      "constant": true
    },
    {
      "inputs": [
        {
          "internalType": "address",
          "name": "id",
          "type": "address"
        }
      ],
      "name": "getProductState",
      "outputs": [
        {
          "internalType": "uint256",
          "name": "",
          "type": "uint256"
        },
        {
          "internalType": "uint256",
          "name": "",
          "type": "uint256"
        },
        {
          "internalType": "uint256",
          "name": "",
          "type": "uint256"
        },
        {
          "internalType": "uint256",
          "name": "",
          "type": "uint256"
        },
        {
          "internalType": "uint256",
          "name": "",
          "type": "uint256"
        }
      ],
      "stateMutability": "view",
      "type": "function",
      "constant": true
    },
    {
      "inputs": [
        {
          "internalType": "address",
          "name": "id",
          "type": "address"
        }
      ],
      "name": "getProduct",
      "outputs": [
        {
          "internalType": "uint256",
          "name": "",
          "type": "uint256"
        },
        {
          "internalType": "address",
          "name": "",
          "type": "address"
        },
        {
          "internalType": "address",
          "name": "",
          "type": "address"
        },
        {
          "internalType": "address",
          "name": "",
          "type": "address"
        },
        {
          "internalType": "string",
          "name": "",
          "type": "string"
        },
        {
          "internalType": "string",
          "name": "",
          "type": "string"
        },
        {
          "internalType": "uint256",
          "name": "",
          "type": "uint256"
        },
        {
          "internalType": "uint256",
          "name": "",
          "type": "uint256"
        },
        {
          "internalType": "string",
          "name": "",
          "type": "string"
        }
      ],
      "stateMutability": "view",
      "type": "function",
      "constant": true
    },
    {
      "inputs": [
        {
          "internalType": "address",
          "name": "id",
          "type": "address"
        }
      ],
      "name": "Delete",
      "outputs": [],
      "stateMutability": "nonpayable",
      "type": "function"
    },
    {
      "inputs": [],
      "name": "N_Product",
      "outputs": [
        {
          "components": [
            {
              "internalType": "uint256",
              "name": "Serial",
              "type": "uint256"
            },
            {
              "internalType": "address",
              "name": "Manufacturer",
              "type": "address"
            },
            {
              "internalType": "address",
              "name": "ProductID",
              "type": "address"
            },
            {
              "internalType": "address",
              "name": "Receiver",
              "type": "address"
            },
            {
              "internalType": "string",
              "name": "ProductName",
              "type": "string"
            },
            {
              "internalType": "string",
              "name": "ProductType",
              "type": "string"
            },
            {
              "internalType": "uint256",
              "name": "ProductPrice",
              "type": "uint256"
            },
            {
              "internalType": "uint256",
              "name": "TimeStamp",
              "type": "uint256"
            },
            {
              "internalType": "string",
              "name": "State",
              "type": "string"
            }
          ],
          "internalType": "struct SupplyChain.ProductDetail[]",
          "name": "",
          "type": "tuple[]"
        }
      ],
      "stateMutability": "view",
      "type": "function",
      "constant": true
    }
  ],
  "bytecode": "0x608060405234801561001057600080fd5b50615f2d80620000216000396000f3fe608060405234801561001057600080fd5b506004361061009e5760003560e01c8063c305f34011610066578063c305f3401461014d578063d03a4dcd14610169578063d055a75f14610185578063d9aba9ce146101a3578063e9269ec7146101db5761009e565b806308071e6d146100a35780634f77df2a146100d75780638319f760146100f35780638462ca1214610111578063bd03adf01461012f575b600080fd5b6100bd60048036038101906100b8919061547d565b6101f7565b6040516100ce9594939291906154c3565b60405180910390f35b6100f160048036038101906100ec919061547d565b6103c4565b005b6100fb613336565b60405161010891906155d4565b60405180910390f35b6101196133c4565b6040516101269190615833565b60405180910390f35b6101376136fa565b604051610144919061589f565b60405180910390f35b610167600480360381019061016291906159f6565b61378c565b005b610183600480360381019061017e919061547d565b6137a6565b005b61018d613b68565b60405161019a9190615833565b60405180910390f35b6101bd60048036038101906101b8919061547d565b613e9e565b6040516101d299989796959493929190615a4e565b60405180910390f35b6101f560048036038101906101f09190615b1c565b614393565b005b60008060008060008060008773ffffffffffffffffffffffffffffffffffffffff1673ffffffffffffffffffffffffffffffffffffffff1681526020019081526020016000206007016000808152602001908152602001600020600001546000808873ffffffffffffffffffffffffffffffffffffffff1673ffffffffffffffffffffffffffffffffffffffff168152602001908152602001600020600701600060018152602001908152602001600020600001546000808973ffffffffffffffffffffffffffffffffffffffff1673ffffffffffffffffffffffffffffffffffffffff168152602001908152602001600020600701600060028152602001908152602001600020600001546000808a73ffffffffffffffffffffffffffffffffffffffff1673ffffffffffffffffffffffffffffffffffffffff168152602001908152602001600020600701600060038152602001908152602001600020600001546000808b73ffffffffffffffffffffffffffffffffffffffff1673ffffffffffffffffffffffffffffffffffffffff168152602001908152602001600020600701600060048152602001908152602001600020600001549450945094509450945091939590929450565b6000808273ffffffffffffffffffffffffffffffffffffffff1673ffffffffffffffffffffffffffffffffffffffff168152602001908152602001600020600001600081548092919061041690615bfe565b919050555060016000808373ffffffffffffffffffffffffffffffffffffffff1673ffffffffffffffffffffffffffffffffffffffff168152602001908152602001600020600001541415610fe157600060405180604001604052804281526020016040518060400160405280600781526020017f50524f43455353000000000000000000000000000000000000000000000000008152508152509050806000808473ffffffffffffffffffffffffffffffffffffffff1673ffffffffffffffffffffffffffffffffffffffff16815260200190815260200160002060070160008060008673ffffffffffffffffffffffffffffffffffffffff1673ffffffffffffffffffffffffffffffffffffffff16815260200190815260200160002060000154815260200190815260200160002060008201518160000155602082015181600101908051906020019061056d92919061529b565b50905050426000808473ffffffffffffffffffffffffffffffffffffffff1673ffffffffffffffffffffffffffffffffffffffff168152602001908152602001600020600701600060018152602001908152602001600020600001819055506105d5826137a6565b60016040518061012001604052806000808673ffffffffffffffffffffffffffffffffffffffff1673ffffffffffffffffffffffffffffffffffffffff1681526020019081526020016000206000015481526020016000808673ffffffffffffffffffffffffffffffffffffffff1673ffffffffffffffffffffffffffffffffffffffff16815260200190815260200160002060010160009054906101000a900473ffffffffffffffffffffffffffffffffffffffff1673ffffffffffffffffffffffffffffffffffffffff1681526020018473ffffffffffffffffffffffffffffffffffffffff1681526020016000808673ffffffffffffffffffffffffffffffffffffffff1673ffffffffffffffffffffffffffffffffffffffff16815260200190815260200160002060030160009054906101000a900473ffffffffffffffffffffffffffffffffffffffff1673ffffffffffffffffffffffffffffffffffffffff1681526020016000808673ffffffffffffffffffffffffffffffffffffffff1673ffffffffffffffffffffffffffffffffffffffff168152602001908152602001600020600401805461078c90615c76565b80601f01602080910402602001604051908101604052809291908181526020018280546107b890615c76565b80156108055780601f106107da57610100808354040283529160200191610805565b820191906000526020600020905b8154815290600101906020018083116107e857829003601f168201915b505050505081526020016000808673ffffffffffffffffffffffffffffffffffffffff1673ffffffffffffffffffffffffffffffffffffffff168152602001908152602001600020600501805461085b90615c76565b80601f016020809104026020016040519081016040528092919081815260200182805461088790615c76565b80156108d45780601f106108a9576101008083540402835291602001916108d4565b820191906000526020600020905b8154815290600101906020018083116108b757829003601f168201915b505050505081526020016000808673ffffffffffffffffffffffffffffffffffffffff1673ffffffffffffffffffffffffffffffffffffffff1681526020019081526020016000206006015481526020014281526020016040518060400160405280600781526020017f50524f434553530000000000000000000000000000000000000000000000000081525081525090806001815401808255809150506001900390600052602060002090600902016000909190919091506000820151816000015560208201518160010160006101000a81548173ffffffffffffffffffffffffffffffffffffffff021916908373ffffffffffffffffffffffffffffffffffffffff16021790555060408201518160020160006101000a81548173ffffffffffffffffffffffffffffffffffffffff021916908373ffffffffffffffffffffffffffffffffffffffff16021790555060608201518160030160006101000a81548173ffffffffffffffffffffffffffffffffffffffff021916908373ffffffffffffffffffffffffffffffffffffffff1602179055506080820151816004019080519060200190610a8892919061529b565b5060a0820151816005019080519060200190610aa592919061529b565b5060c0820151816006015560e08201518160070155610100820151816008019080519060200190610ad792919061529b565b50505060046040518061012001604052806000808673ffffffffffffffffffffffffffffffffffffffff1673ffffffffffffffffffffffffffffffffffffffff1681526020019081526020016000206000015481526020016000808673ffffffffffffffffffffffffffffffffffffffff1673ffffffffffffffffffffffffffffffffffffffff16815260200190815260200160002060010160009054906101000a900473ffffffffffffffffffffffffffffffffffffffff1673ffffffffffffffffffffffffffffffffffffffff1681526020018473ffffffffffffffffffffffffffffffffffffffff1681526020016000808673ffffffffffffffffffffffffffffffffffffffff1673ffffffffffffffffffffffffffffffffffffffff16815260200190815260200160002060030160009054906101000a900473ffffffffffffffffffffffffffffffffffffffff1673ffffffffffffffffffffffffffffffffffffffff1681526020016000808673ffffffffffffffffffffffffffffffffffffffff1673ffffffffffffffffffffffffffffffffffffffff1681526020019081526020016000206004018054610c9190615c76565b80601f0160208091040260200160405190810160405280929190818152602001828054610cbd90615c76565b8015610d0a5780601f10610cdf57610100808354040283529160200191610d0a565b820191906000526020600020905b815481529060010190602001808311610ced57829003601f168201915b505050505081526020016000808673ffffffffffffffffffffffffffffffffffffffff1673ffffffffffffffffffffffffffffffffffffffff1681526020019081526020016000206005018054610d6090615c76565b80601f0160208091040260200160405190810160405280929190818152602001828054610d8c90615c76565b8015610dd95780601f10610dae57610100808354040283529160200191610dd9565b820191906000526020600020905b815481529060010190602001808311610dbc57829003601f168201915b505050505081526020016000808673ffffffffffffffffffffffffffffffffffffffff1673ffffffffffffffffffffffffffffffffffffffff1681526020019081526020016000206006015481526020014281526020016040518060400160405280600781526020017f50524f434553530000000000000000000000000000000000000000000000000081525081525090806001815401808255809150506001900390600052602060002090600902016000909190919091506000820151816000015560208201518160010160006101000a81548173ffffffffffffffffffffffffffffffffffffffff021916908373ffffffffffffffffffffffffffffffffffffffff16021790555060408201518160020160006101000a81548173ffffffffffffffffffffffffffffffffffffffff021916908373ffffffffffffffffffffffffffffffffffffffff16021790555060608201518160030160006101000a81548173ffffffffffffffffffffffffffffffffffffffff021916908373ffffffffffffffffffffffffffffffffffffffff1602179055506080820151816004019080519060200190610f8d92919061529b565b5060a0820151816005019080519060200190610faa92919061529b565b5060c0820151816006015560e08201518160070155610100820151816008019080519060200190610fdc92919061529b565b505050505b60026000808373ffffffffffffffffffffffffffffffffffffffff1673ffffffffffffffffffffffffffffffffffffffff168152602001908152602001600020600001541415611ba757600060405180604001604052804281526020016040518060400160405280600681526020017f46494e49534800000000000000000000000000000000000000000000000000008152508152509050806000808473ffffffffffffffffffffffffffffffffffffffff1673ffffffffffffffffffffffffffffffffffffffff16815260200190815260200160002060070160008060008673ffffffffffffffffffffffffffffffffffffffff1673ffffffffffffffffffffffffffffffffffffffff16815260200190815260200160002060000154815260200190815260200160002060008201518160000155602082015181600101908051906020019061113392919061529b565b50905050426000808473ffffffffffffffffffffffffffffffffffffffff1673ffffffffffffffffffffffffffffffffffffffff1681526020019081526020016000206007016000600281526020019081526020016000206000018190555061119b826137a6565b60016040518061012001604052806000808673ffffffffffffffffffffffffffffffffffffffff1673ffffffffffffffffffffffffffffffffffffffff1681526020019081526020016000206000015481526020016000808673ffffffffffffffffffffffffffffffffffffffff1673ffffffffffffffffffffffffffffffffffffffff16815260200190815260200160002060010160009054906101000a900473ffffffffffffffffffffffffffffffffffffffff1673ffffffffffffffffffffffffffffffffffffffff1681526020018473ffffffffffffffffffffffffffffffffffffffff1681526020016000808673ffffffffffffffffffffffffffffffffffffffff1673ffffffffffffffffffffffffffffffffffffffff16815260200190815260200160002060030160009054906101000a900473ffffffffffffffffffffffffffffffffffffffff1673ffffffffffffffffffffffffffffffffffffffff1681526020016000808673ffffffffffffffffffffffffffffffffffffffff1673ffffffffffffffffffffffffffffffffffffffff168152602001908152602001600020600401805461135290615c76565b80601f016020809104026020016040519081016040528092919081815260200182805461137e90615c76565b80156113cb5780601f106113a0576101008083540402835291602001916113cb565b820191906000526020600020905b8154815290600101906020018083116113ae57829003601f168201915b505050505081526020016000808673ffffffffffffffffffffffffffffffffffffffff1673ffffffffffffffffffffffffffffffffffffffff168152602001908152602001600020600501805461142190615c76565b80601f016020809104026020016040519081016040528092919081815260200182805461144d90615c76565b801561149a5780601f1061146f5761010080835404028352916020019161149a565b820191906000526020600020905b81548152906001019060200180831161147d57829003601f168201915b505050505081526020016000808673ffffffffffffffffffffffffffffffffffffffff1673ffffffffffffffffffffffffffffffffffffffff1681526020019081526020016000206006015481526020014281526020016040518060400160405280600681526020017f46494e495348000000000000000000000000000000000000000000000000000081525081525090806001815401808255809150506001900390600052602060002090600902016000909190919091506000820151816000015560208201518160010160006101000a81548173ffffffffffffffffffffffffffffffffffffffff021916908373ffffffffffffffffffffffffffffffffffffffff16021790555060408201518160020160006101000a81548173ffffffffffffffffffffffffffffffffffffffff021916908373ffffffffffffffffffffffffffffffffffffffff16021790555060608201518160030160006101000a81548173ffffffffffffffffffffffffffffffffffffffff021916908373ffffffffffffffffffffffffffffffffffffffff160217905550608082015181600401908051906020019061164e92919061529b565b5060a082015181600501908051906020019061166b92919061529b565b5060c0820151816006015560e0820151816007015561010082015181600801908051906020019061169d92919061529b565b50505060046040518061012001604052806000808673ffffffffffffffffffffffffffffffffffffffff1673ffffffffffffffffffffffffffffffffffffffff1681526020019081526020016000206000015481526020016000808673ffffffffffffffffffffffffffffffffffffffff1673ffffffffffffffffffffffffffffffffffffffff16815260200190815260200160002060010160009054906101000a900473ffffffffffffffffffffffffffffffffffffffff1673ffffffffffffffffffffffffffffffffffffffff1681526020018473ffffffffffffffffffffffffffffffffffffffff1681526020016000808673ffffffffffffffffffffffffffffffffffffffff1673ffffffffffffffffffffffffffffffffffffffff16815260200190815260200160002060030160009054906101000a900473ffffffffffffffffffffffffffffffffffffffff1673ffffffffffffffffffffffffffffffffffffffff1681526020016000808673ffffffffffffffffffffffffffffffffffffffff1673ffffffffffffffffffffffffffffffffffffffff168152602001908152602001600020600401805461185790615c76565b80601f016020809104026020016040519081016040528092919081815260200182805461188390615c76565b80156118d05780601f106118a5576101008083540402835291602001916118d0565b820191906000526020600020905b8154815290600101906020018083116118b357829003601f168201915b505050505081526020016000808673ffffffffffffffffffffffffffffffffffffffff1673ffffffffffffffffffffffffffffffffffffffff168152602001908152602001600020600501805461192690615c76565b80601f016020809104026020016040519081016040528092919081815260200182805461195290615c76565b801561199f5780601f106119745761010080835404028352916020019161199f565b820191906000526020600020905b81548152906001019060200180831161198257829003601f168201915b505050505081526020016000808673ffffffffffffffffffffffffffffffffffffffff1673ffffffffffffffffffffffffffffffffffffffff1681526020019081526020016000206006015481526020014281526020016040518060400160405280600681526020017f46494e495348000000000000000000000000000000000000000000000000000081525081525090806001815401808255809150506001900390600052602060002090600902016000909190919091506000820151816000015560208201518160010160006101000a81548173ffffffffffffffffffffffffffffffffffffffff021916908373ffffffffffffffffffffffffffffffffffffffff16021790555060408201518160020160006101000a81548173ffffffffffffffffffffffffffffffffffffffff021916908373ffffffffffffffffffffffffffffffffffffffff16021790555060608201518160030160006101000a81548173ffffffffffffffffffffffffffffffffffffffff021916908373ffffffffffffffffffffffffffffffffffffffff1602179055506080820151816004019080519060200190611b5392919061529b565b5060a0820151816005019080519060200190611b7092919061529b565b5060c0820151816006015560e08201518160070155610100820151816008019080519060200190611ba292919061529b565b505050505b60036000808373ffffffffffffffffffffffffffffffffffffffff1673ffffffffffffffffffffffffffffffffffffffff16815260200190815260200160002060000154141561276d57600060405180604001604052804281526020016040518060400160405280600a81526020017f494e5f5452414e534954000000000000000000000000000000000000000000008152508152509050806000808473ffffffffffffffffffffffffffffffffffffffff1673ffffffffffffffffffffffffffffffffffffffff16815260200190815260200160002060070160008060008673ffffffffffffffffffffffffffffffffffffffff1673ffffffffffffffffffffffffffffffffffffffff168152602001908152602001600020600001548152602001908152602001600020600082015181600001556020820151816001019080519060200190611cf992919061529b565b50905050426000808473ffffffffffffffffffffffffffffffffffffffff1673ffffffffffffffffffffffffffffffffffffffff16815260200190815260200160002060070160006003815260200190815260200160002060000181905550611d61826137a6565b60016040518061012001604052806000808673ffffffffffffffffffffffffffffffffffffffff1673ffffffffffffffffffffffffffffffffffffffff1681526020019081526020016000206000015481526020016000808673ffffffffffffffffffffffffffffffffffffffff1673ffffffffffffffffffffffffffffffffffffffff16815260200190815260200160002060010160009054906101000a900473ffffffffffffffffffffffffffffffffffffffff1673ffffffffffffffffffffffffffffffffffffffff1681526020018473ffffffffffffffffffffffffffffffffffffffff1681526020016000808673ffffffffffffffffffffffffffffffffffffffff1673ffffffffffffffffffffffffffffffffffffffff16815260200190815260200160002060030160009054906101000a900473ffffffffffffffffffffffffffffffffffffffff1673ffffffffffffffffffffffffffffffffffffffff1681526020016000808673ffffffffffffffffffffffffffffffffffffffff1673ffffffffffffffffffffffffffffffffffffffff1681526020019081526020016000206004018054611f1890615c76565b80601f0160208091040260200160405190810160405280929190818152602001828054611f4490615c76565b8015611f915780601f10611f6657610100808354040283529160200191611f91565b820191906000526020600020905b815481529060010190602001808311611f7457829003601f168201915b505050505081526020016000808673ffffffffffffffffffffffffffffffffffffffff1673ffffffffffffffffffffffffffffffffffffffff1681526020019081526020016000206005018054611fe790615c76565b80601f016020809104026020016040519081016040528092919081815260200182805461201390615c76565b80156120605780601f1061203557610100808354040283529160200191612060565b820191906000526020600020905b81548152906001019060200180831161204357829003601f168201915b505050505081526020016000808673ffffffffffffffffffffffffffffffffffffffff1673ffffffffffffffffffffffffffffffffffffffff1681526020019081526020016000206006015481526020014281526020016040518060400160405280600a81526020017f494e5f5452414e5349540000000000000000000000000000000000000000000081525081525090806001815401808255809150506001900390600052602060002090600902016000909190919091506000820151816000015560208201518160010160006101000a81548173ffffffffffffffffffffffffffffffffffffffff021916908373ffffffffffffffffffffffffffffffffffffffff16021790555060408201518160020160006101000a81548173ffffffffffffffffffffffffffffffffffffffff021916908373ffffffffffffffffffffffffffffffffffffffff16021790555060608201518160030160006101000a81548173ffffffffffffffffffffffffffffffffffffffff021916908373ffffffffffffffffffffffffffffffffffffffff160217905550608082015181600401908051906020019061221492919061529b565b5060a082015181600501908051906020019061223192919061529b565b5060c0820151816006015560e0820151816007015561010082015181600801908051906020019061226392919061529b565b50505060046040518061012001604052806000808673ffffffffffffffffffffffffffffffffffffffff1673ffffffffffffffffffffffffffffffffffffffff1681526020019081526020016000206000015481526020016000808673ffffffffffffffffffffffffffffffffffffffff1673ffffffffffffffffffffffffffffffffffffffff16815260200190815260200160002060010160009054906101000a900473ffffffffffffffffffffffffffffffffffffffff1673ffffffffffffffffffffffffffffffffffffffff1681526020018473ffffffffffffffffffffffffffffffffffffffff1681526020016000808673ffffffffffffffffffffffffffffffffffffffff1673ffffffffffffffffffffffffffffffffffffffff16815260200190815260200160002060030160009054906101000a900473ffffffffffffffffffffffffffffffffffffffff1673ffffffffffffffffffffffffffffffffffffffff1681526020016000808673ffffffffffffffffffffffffffffffffffffffff1673ffffffffffffffffffffffffffffffffffffffff168152602001908152602001600020600401805461241d90615c76565b80601f016020809104026020016040519081016040528092919081815260200182805461244990615c76565b80156124965780601f1061246b57610100808354040283529160200191612496565b820191906000526020600020905b81548152906001019060200180831161247957829003601f168201915b505050505081526020016000808673ffffffffffffffffffffffffffffffffffffffff1673ffffffffffffffffffffffffffffffffffffffff16815260200190815260200160002060050180546124ec90615c76565b80601f016020809104026020016040519081016040528092919081815260200182805461251890615c76565b80156125655780601f1061253a57610100808354040283529160200191612565565b820191906000526020600020905b81548152906001019060200180831161254857829003601f168201915b505050505081526020016000808673ffffffffffffffffffffffffffffffffffffffff1673ffffffffffffffffffffffffffffffffffffffff1681526020019081526020016000206006015481526020014281526020016040518060400160405280600a81526020017f494e5f5452414e5349540000000000000000000000000000000000000000000081525081525090806001815401808255809150506001900390600052602060002090600902016000909190919091506000820151816000015560208201518160010160006101000a81548173ffffffffffffffffffffffffffffffffffffffff021916908373ffffffffffffffffffffffffffffffffffffffff16021790555060408201518160020160006101000a81548173ffffffffffffffffffffffffffffffffffffffff021916908373ffffffffffffffffffffffffffffffffffffffff16021790555060608201518160030160006101000a81548173ffffffffffffffffffffffffffffffffffffffff021916908373ffffffffffffffffffffffffffffffffffffffff160217905550608082015181600401908051906020019061271992919061529b565b5060a082015181600501908051906020019061273692919061529b565b5060c0820151816006015560e0820151816007015561010082015181600801908051906020019061276892919061529b565b505050505b60046000808373ffffffffffffffffffffffffffffffffffffffff1673ffffffffffffffffffffffffffffffffffffffff16815260200190815260200160002060000154141561333357600060405180604001604052804281526020016040518060400160405280600781526020017f41525249564544000000000000000000000000000000000000000000000000008152508152509050806000808473ffffffffffffffffffffffffffffffffffffffff1673ffffffffffffffffffffffffffffffffffffffff16815260200190815260200160002060070160008060008673ffffffffffffffffffffffffffffffffffffffff1673ffffffffffffffffffffffffffffffffffffffff1681526020019081526020016000206000015481526020019081526020016000206000820151816000015560208201518160010190805190602001906128bf92919061529b565b50905050426000808473ffffffffffffffffffffffffffffffffffffffff1673ffffffffffffffffffffffffffffffffffffffff16815260200190815260200160002060070160006004815260200190815260200160002060000181905550612927826137a6565b60016040518061012001604052806000808673ffffffffffffffffffffffffffffffffffffffff1673ffffffffffffffffffffffffffffffffffffffff1681526020019081526020016000206000015481526020016000808673ffffffffffffffffffffffffffffffffffffffff1673ffffffffffffffffffffffffffffffffffffffff16815260200190815260200160002060010160009054906101000a900473ffffffffffffffffffffffffffffffffffffffff1673ffffffffffffffffffffffffffffffffffffffff1681526020018473ffffffffffffffffffffffffffffffffffffffff1681526020016000808673ffffffffffffffffffffffffffffffffffffffff1673ffffffffffffffffffffffffffffffffffffffff16815260200190815260200160002060030160009054906101000a900473ffffffffffffffffffffffffffffffffffffffff1673ffffffffffffffffffffffffffffffffffffffff1681526020016000808673ffffffffffffffffffffffffffffffffffffffff1673ffffffffffffffffffffffffffffffffffffffff1681526020019081526020016000206004018054612ade90615c76565b80601f0160208091040260200160405190810160405280929190818152602001828054612b0a90615c76565b8015612b575780601f10612b2c57610100808354040283529160200191612b57565b820191906000526020600020905b815481529060010190602001808311612b3a57829003601f168201915b505050505081526020016000808673ffffffffffffffffffffffffffffffffffffffff1673ffffffffffffffffffffffffffffffffffffffff1681526020019081526020016000206005018054612bad90615c76565b80601f0160208091040260200160405190810160405280929190818152602001828054612bd990615c76565b8015612c265780601f10612bfb57610100808354040283529160200191612c26565b820191906000526020600020905b815481529060010190602001808311612c0957829003601f168201915b505050505081526020016000808673ffffffffffffffffffffffffffffffffffffffff1673ffffffffffffffffffffffffffffffffffffffff1681526020019081526020016000206006015481526020014281526020016040518060400160405280600781526020017f415252495645440000000000000000000000000000000000000000000000000081525081525090806001815401808255809150506001900390600052602060002090600902016000909190919091506000820151816000015560208201518160010160006101000a81548173ffffffffffffffffffffffffffffffffffffffff021916908373ffffffffffffffffffffffffffffffffffffffff16021790555060408201518160020160006101000a81548173ffffffffffffffffffffffffffffffffffffffff021916908373ffffffffffffffffffffffffffffffffffffffff16021790555060608201518160030160006101000a81548173ffffffffffffffffffffffffffffffffffffffff021916908373ffffffffffffffffffffffffffffffffffffffff1602179055506080820151816004019080519060200190612dda92919061529b565b5060a0820151816005019080519060200190612df792919061529b565b5060c0820151816006015560e08201518160070155610100820151816008019080519060200190612e2992919061529b565b50505060046040518061012001604052806000808673ffffffffffffffffffffffffffffffffffffffff1673ffffffffffffffffffffffffffffffffffffffff1681526020019081526020016000206000015481526020016000808673ffffffffffffffffffffffffffffffffffffffff1673ffffffffffffffffffffffffffffffffffffffff16815260200190815260200160002060010160009054906101000a900473ffffffffffffffffffffffffffffffffffffffff1673ffffffffffffffffffffffffffffffffffffffff1681526020018473ffffffffffffffffffffffffffffffffffffffff1681526020016000808673ffffffffffffffffffffffffffffffffffffffff1673ffffffffffffffffffffffffffffffffffffffff16815260200190815260200160002060030160009054906101000a900473ffffffffffffffffffffffffffffffffffffffff1673ffffffffffffffffffffffffffffffffffffffff1681526020016000808673ffffffffffffffffffffffffffffffffffffffff1673ffffffffffffffffffffffffffffffffffffffff1681526020019081526020016000206004018054612fe390615c76565b80601f016020809104026020016040519081016040528092919081815260200182805461300f90615c76565b801561305c5780601f106130315761010080835404028352916020019161305c565b820191906000526020600020905b81548152906001019060200180831161303f57829003601f168201915b505050505081526020016000808673ffffffffffffffffffffffffffffffffffffffff1673ffffffffffffffffffffffffffffffffffffffff16815260200190815260200160002060050180546130b290615c76565b80601f01602080910402602001604051908101604052809291908181526020018280546130de90615c76565b801561312b5780601f106131005761010080835404028352916020019161312b565b820191906000526020600020905b81548152906001019060200180831161310e57829003601f168201915b505050505081526020016000808673ffffffffffffffffffffffffffffffffffffffff1673ffffffffffffffffffffffffffffffffffffffff1681526020019081526020016000206006015481526020014281526020016040518060400160405280600781526020017f415252495645440000000000000000000000000000000000000000000000000081525081525090806001815401808255809150506001900390600052602060002090600902016000909190919091506000820151816000015560208201518160010160006101000a81548173ffffffffffffffffffffffffffffffffffffffff021916908373ffffffffffffffffffffffffffffffffffffffff16021790555060408201518160020160006101000a81548173ffffffffffffffffffffffffffffffffffffffff021916908373ffffffffffffffffffffffffffffffffffffffff16021790555060608201518160030160006101000a81548173ffffffffffffffffffffffffffffffffffffffff021916908373ffffffffffffffffffffffffffffffffffffffff16021790555060808201518160040190805190602001906132df92919061529b565b5060a08201518160050190805190602001906132fc92919061529b565b5060c0820151816006015560e0820151816007015561010082015181600801908051906020019061332e92919061529b565b505050505b50565b606060028054806020026020016040519081016040528092919081815260200182805480156133ba57602002820191906000526020600020905b8160009054906101000a900473ffffffffffffffffffffffffffffffffffffffff1673ffffffffffffffffffffffffffffffffffffffff1681526020019060010190808311613370575b5050505050905090565b60606004805480602002602001604051908101604052809291908181526020016000905b828210156136f1578382906000526020600020906009020160405180610120016040529081600082015481526020016001820160009054906101000a900473ffffffffffffffffffffffffffffffffffffffff1673ffffffffffffffffffffffffffffffffffffffff1673ffffffffffffffffffffffffffffffffffffffff1681526020016002820160009054906101000a900473ffffffffffffffffffffffffffffffffffffffff1673ffffffffffffffffffffffffffffffffffffffff1673ffffffffffffffffffffffffffffffffffffffff1681526020016003820160009054906101000a900473ffffffffffffffffffffffffffffffffffffffff1673ffffffffffffffffffffffffffffffffffffffff1673ffffffffffffffffffffffffffffffffffffffff16815260200160048201805461352890615c76565b80601f016020809104026020016040519081016040528092919081815260200182805461355490615c76565b80156135a15780601f10613576576101008083540402835291602001916135a1565b820191906000526020600020905b81548152906001019060200180831161358457829003601f168201915b505050505081526020016005820180546135ba90615c76565b80601f01602080910402602001604051908101604052809291908181526020018280546135e690615c76565b80156136335780601f1061360857610100808354040283529160200191613633565b820191906000526020600020905b81548152906001019060200180831161361657829003601f168201915b50505050508152602001600682015481526020016007820154815260200160088201805461366090615c76565b80601f016020809104026020016040519081016040528092919081815260200182805461368c90615c76565b80156136d95780601f106136ae576101008083540402835291602001916136d9565b820191906000526020600020905b8154815290600101906020018083116136bc57829003601f168201915b505050505081525050815260200190600101906133e8565b50505050905090565b60606003805461370990615c76565b80601f016020809104026020016040519081016040528092919081815260200182805461373590615c76565b80156137825780601f1061375757610100808354040283529160200191613782565b820191906000526020600020905b81548152906001019060200180831161376557829003601f168201915b5050505050905090565b80600390805190602001906137a292919061529b565b5050565b60005b600480549050811015613b64578173ffffffffffffffffffffffffffffffffffffffff16600482815481106137e1576137e0615ca8565b5b906000526020600020906009020160020160009054906101000a900473ffffffffffffffffffffffffffffffffffffffff1673ffffffffffffffffffffffffffffffffffffffff161415613b515760008190505b60016004805490506138479190615cd7565b811015613a6757600460018261385d9190615d0b565b8154811061386e5761386d615ca8565b5b9060005260206000209060090201600482815481106138905761388f615ca8565b5b9060005260206000209060090201600082015481600001556001820160009054906101000a900473ffffffffffffffffffffffffffffffffffffffff168160010160006101000a81548173ffffffffffffffffffffffffffffffffffffffff021916908373ffffffffffffffffffffffffffffffffffffffff1602179055506002820160009054906101000a900473ffffffffffffffffffffffffffffffffffffffff168160020160006101000a81548173ffffffffffffffffffffffffffffffffffffffff021916908373ffffffffffffffffffffffffffffffffffffffff1602179055506003820160009054906101000a900473ffffffffffffffffffffffffffffffffffffffff168160030160006101000a81548173ffffffffffffffffffffffffffffffffffffffff021916908373ffffffffffffffffffffffffffffffffffffffff16021790555060048201816004019080546139f190615c76565b6139fc929190615321565b506005820181600501908054613a1190615c76565b613a1c929190615321565b5060068201548160060155600782015481600701556008820181600801908054613a4590615c76565b613a50929190615321565b509050508080613a5f90615bfe565b915050613835565b506004805480613a7a57613a79615d61565b5b60019003818190600052602060002090600902016000808201600090556001820160006101000a81549073ffffffffffffffffffffffffffffffffffffffff02191690556002820160006101000a81549073ffffffffffffffffffffffffffffffffffffffff02191690556003820160006101000a81549073ffffffffffffffffffffffffffffffffffffffff0219169055600482016000613b1c91906153ae565b600582016000613b2c91906153ae565b60068201600090556007820160009055600882016000613b4c91906153ae565b505090555b8080613b5c90615bfe565b9150506137a9565b5050565b60606001805480602002602001604051908101604052809291908181526020016000905b82821015613e95578382906000526020600020906009020160405180610120016040529081600082015481526020016001820160009054906101000a900473ffffffffffffffffffffffffffffffffffffffff1673ffffffffffffffffffffffffffffffffffffffff1673ffffffffffffffffffffffffffffffffffffffff1681526020016002820160009054906101000a900473ffffffffffffffffffffffffffffffffffffffff1673ffffffffffffffffffffffffffffffffffffffff1673ffffffffffffffffffffffffffffffffffffffff1681526020016003820160009054906101000a900473ffffffffffffffffffffffffffffffffffffffff1673ffffffffffffffffffffffffffffffffffffffff1673ffffffffffffffffffffffffffffffffffffffff168152602001600482018054613ccc90615c76565b80601f0160208091040260200160405190810160405280929190818152602001828054613cf890615c76565b8015613d455780601f10613d1a57610100808354040283529160200191613d45565b820191906000526020600020905b815481529060010190602001808311613d2857829003601f168201915b50505050508152602001600582018054613d5e90615c76565b80601f0160208091040260200160405190810160405280929190818152602001828054613d8a90615c76565b8015613dd75780601f10613dac57610100808354040283529160200191613dd7565b820191906000526020600020905b815481529060010190602001808311613dba57829003601f168201915b505050505081526020016006820154815260200160078201548152602001600882018054613e0490615c76565b80601f0160208091040260200160405190810160405280929190818152602001828054613e3090615c76565b8015613e7d5780601f10613e5257610100808354040283529160200191613e7d565b820191906000526020600020905b815481529060010190602001808311613e6057829003601f168201915b50505050508152505081526020019060010190613b8c565b50505050905090565b600080600080606080600080606060008060008c73ffffffffffffffffffffffffffffffffffffffff1673ffffffffffffffffffffffffffffffffffffffff16815260200190815260200160002060000154905060008b90506000808d73ffffffffffffffffffffffffffffffffffffffff1673ffffffffffffffffffffffffffffffffffffffff168152602001908152602001600020600001546000808e73ffffffffffffffffffffffffffffffffffffffff1673ffffffffffffffffffffffffffffffffffffffff16815260200190815260200160002060010160009054906101000a900473ffffffffffffffffffffffffffffffffffffffff166000808f73ffffffffffffffffffffffffffffffffffffffff1673ffffffffffffffffffffffffffffffffffffffff16815260200190815260200160002060020160009054906101000a900473ffffffffffffffffffffffffffffffffffffffff166000808573ffffffffffffffffffffffffffffffffffffffff1673ffffffffffffffffffffffffffffffffffffffff16815260200190815260200160002060030160009054906101000a900473ffffffffffffffffffffffffffffffffffffffff166000808673ffffffffffffffffffffffffffffffffffffffff1673ffffffffffffffffffffffffffffffffffffffff1681526020019081526020016000206004016000808773ffffffffffffffffffffffffffffffffffffffff1673ffffffffffffffffffffffffffffffffffffffff1681526020019081526020016000206005016000808873ffffffffffffffffffffffffffffffffffffffff1673ffffffffffffffffffffffffffffffffffffffff168152602001908152602001600020600601546000808973ffffffffffffffffffffffffffffffffffffffff1673ffffffffffffffffffffffffffffffffffffffff16815260200190815260200160002060070160008a8152602001908152602001600020600001546000808a73ffffffffffffffffffffffffffffffffffffffff1673ffffffffffffffffffffffffffffffffffffffff16815260200190815260200160002060070160008b81526020019081526020016000206001018480546141da90615c76565b80601f016020809104026020016040519081016040528092919081815260200182805461420690615c76565b80156142535780601f1061422857610100808354040283529160200191614253565b820191906000526020600020905b81548152906001019060200180831161423657829003601f168201915b5050505050945083805461426690615c76565b80601f016020809104026020016040519081016040528092919081815260200182805461429290615c76565b80156142df5780601f106142b4576101008083540402835291602001916142df565b820191906000526020600020905b8154815290600101906020018083116142c257829003601f168201915b505050505093508080546142f290615c76565b80601f016020809104026020016040519081016040528092919081815260200182805461431e90615c76565b801561436b5780601f106143405761010080835404028352916020019161436b565b820191906000526020600020905b81548152906001019060200180831161434e57829003601f168201915b505050505090509a509a509a509a509a509a509a509a509a5050509193959799909294969850565b600560008154809291906143a690615bfe565b91905055506000600233426005546040516020016143c693929190615df9565b6040516020818303038152906040526040516143e29190615e7d565b602060405180830381855afa1580156143ff573d6000803e3d6000fd5b5050506040513d601f19601f820116820180604052508101906144229190615eca565b60601c905060008060008373ffffffffffffffffffffffffffffffffffffffff1673ffffffffffffffffffffffffffffffffffffffff16815260200190815260200160002060000181905550816000808373ffffffffffffffffffffffffffffffffffffffff1673ffffffffffffffffffffffffffffffffffffffff16815260200190815260200160002060010160006101000a81548173ffffffffffffffffffffffffffffffffffffffff021916908373ffffffffffffffffffffffffffffffffffffffff160217905550806000808373ffffffffffffffffffffffffffffffffffffffff1673ffffffffffffffffffffffffffffffffffffffff16815260200190815260200160002060020160006101000a81548173ffffffffffffffffffffffffffffffffffffffff021916908373ffffffffffffffffffffffffffffffffffffffff160217905550856000808373ffffffffffffffffffffffffffffffffffffffff1673ffffffffffffffffffffffffffffffffffffffff16815260200190815260200160002060040190805190602001906145c392919061529b565b50826000808373ffffffffffffffffffffffffffffffffffffffff1673ffffffffffffffffffffffffffffffffffffffff16815260200190815260200160002060030160006101000a81548173ffffffffffffffffffffffffffffffffffffffff021916908373ffffffffffffffffffffffffffffffffffffffff160217905550846000808373ffffffffffffffffffffffffffffffffffffffff1673ffffffffffffffffffffffffffffffffffffffff168152602001908152602001600020600501908051906020019061469992919061529b565b50836000808373ffffffffffffffffffffffffffffffffffffffff1673ffffffffffffffffffffffffffffffffffffffff16815260200190815260200160002060060181905550600060405180604001604052804281526020016040518060400160405280600681526020017f534554494e4700000000000000000000000000000000000000000000000000008152508152509050806000808473ffffffffffffffffffffffffffffffffffffffff1673ffffffffffffffffffffffffffffffffffffffff16815260200190815260200160002060070160008060008673ffffffffffffffffffffffffffffffffffffffff1673ffffffffffffffffffffffffffffffffffffffff1681526020019081526020016000206000015481526020019081526020016000206000820151816000015560208201518160010190805190602001906147e892919061529b565b5090505060008060008473ffffffffffffffffffffffffffffffffffffffff1673ffffffffffffffffffffffffffffffffffffffff1681526020019081526020016000206007016000600181526020019081526020016000206000018190555060008060008473ffffffffffffffffffffffffffffffffffffffff1673ffffffffffffffffffffffffffffffffffffffff1681526020019081526020016000206007016000600281526020019081526020016000206000018190555060008060008473ffffffffffffffffffffffffffffffffffffffff1673ffffffffffffffffffffffffffffffffffffffff1681526020019081526020016000206007016000600381526020019081526020016000206000018190555060008060008473ffffffffffffffffffffffffffffffffffffffff1673ffffffffffffffffffffffffffffffffffffffff168152602001908152602001600020600701600060048152602001908152602001600020600001819055506002829080600181540180825580915050600190039060005260206000200160009091909190916101000a81548173ffffffffffffffffffffffffffffffffffffffff021916908373ffffffffffffffffffffffffffffffffffffffff16021790555060016040518061012001604052806000808673ffffffffffffffffffffffffffffffffffffffff1673ffffffffffffffffffffffffffffffffffffffff1681526020019081526020016000206000015481526020018573ffffffffffffffffffffffffffffffffffffffff1681526020018473ffffffffffffffffffffffffffffffffffffffff1681526020018673ffffffffffffffffffffffffffffffffffffffff1681526020018981526020018881526020018781526020014281526020016040518060400160405280600781526020017f53454554494e470000000000000000000000000000000000000000000000000081525081525090806001815401808255809150506001900390600052602060002090600902016000909190919091506000820151816000015560208201518160010160006101000a81548173ffffffffffffffffffffffffffffffffffffffff021916908373ffffffffffffffffffffffffffffffffffffffff16021790555060408201518160020160006101000a81548173ffffffffffffffffffffffffffffffffffffffff021916908373ffffffffffffffffffffffffffffffffffffffff16021790555060608201518160030160006101000a81548173ffffffffffffffffffffffffffffffffffffffff021916908373ffffffffffffffffffffffffffffffffffffffff1602179055506080820151816004019080519060200190614bdd92919061529b565b5060a0820151816005019080519060200190614bfa92919061529b565b5060c0820151816006015560e08201518160070155610100820151816008019080519060200190614c2c92919061529b565b50505060046040518061012001604052806000808673ffffffffffffffffffffffffffffffffffffffff1673ffffffffffffffffffffffffffffffffffffffff1681526020019081526020016000206000015481526020016000808673ffffffffffffffffffffffffffffffffffffffff1673ffffffffffffffffffffffffffffffffffffffff16815260200190815260200160002060010160009054906101000a900473ffffffffffffffffffffffffffffffffffffffff1673ffffffffffffffffffffffffffffffffffffffff1681526020016000808673ffffffffffffffffffffffffffffffffffffffff1673ffffffffffffffffffffffffffffffffffffffff16815260200190815260200160002060020160009054906101000a900473ffffffffffffffffffffffffffffffffffffffff1673ffffffffffffffffffffffffffffffffffffffff1681526020016000808673ffffffffffffffffffffffffffffffffffffffff1673ffffffffffffffffffffffffffffffffffffffff16815260200190815260200160002060030160009054906101000a900473ffffffffffffffffffffffffffffffffffffffff1673ffffffffffffffffffffffffffffffffffffffff1681526020016000808673ffffffffffffffffffffffffffffffffffffffff1673ffffffffffffffffffffffffffffffffffffffff1681526020019081526020016000206004018054614e4790615c76565b80601f0160208091040260200160405190810160405280929190818152602001828054614e7390615c76565b8015614ec05780601f10614e9557610100808354040283529160200191614ec0565b820191906000526020600020905b815481529060010190602001808311614ea357829003601f168201915b505050505081526020016000808673ffffffffffffffffffffffffffffffffffffffff1673ffffffffffffffffffffffffffffffffffffffff1681526020019081526020016000206005018054614f1690615c76565b80601f0160208091040260200160405190810160405280929190818152602001828054614f4290615c76565b8015614f8f5780601f10614f6457610100808354040283529160200191614f8f565b820191906000526020600020905b815481529060010190602001808311614f7257829003601f168201915b505050505081526020016000808673ffffffffffffffffffffffffffffffffffffffff1673ffffffffffffffffffffffffffffffffffffffff1681526020019081526020016000206006015481526020016000808673ffffffffffffffffffffffffffffffffffffffff1673ffffffffffffffffffffffffffffffffffffffff16815260200190815260200160002060070160008081526020019081526020016000206000015481526020016000808673ffffffffffffffffffffffffffffffffffffffff1673ffffffffffffffffffffffffffffffffffffffff1681526020019081526020016000206007016000808152602001908152602001600020600101805461509b90615c76565b80601f01602080910402602001604051908101604052809291908181526020018280546150c790615c76565b80156151145780601f106150e957610100808354040283529160200191615114565b820191906000526020600020905b8154815290600101906020018083116150f757829003601f168201915b505050505081525090806001815401808255809150506001900390600052602060002090600902016000909190919091506000820151816000015560208201518160010160006101000a81548173ffffffffffffffffffffffffffffffffffffffff021916908373ffffffffffffffffffffffffffffffffffffffff16021790555060408201518160020160006101000a81548173ffffffffffffffffffffffffffffffffffffffff021916908373ffffffffffffffffffffffffffffffffffffffff16021790555060608201518160030160006101000a81548173ffffffffffffffffffffffffffffffffffffffff021916908373ffffffffffffffffffffffffffffffffffffffff160217905550608082015181600401908051906020019061524092919061529b565b5060a082015181600501908051906020019061525d92919061529b565b5060c0820151816006015560e0820151816007015561010082015181600801908051906020019061528f92919061529b565b50505050505050505050565b8280546152a790615c76565b90600052602060002090601f0160209004810192826152c95760008555615310565b82601f106152e257805160ff1916838001178555615310565b82800160010185558215615310579182015b8281111561530f5782518255916020019190600101906152f4565b5b50905061531d91906153ee565b5090565b82805461532d90615c76565b90600052602060002090601f01602090048101928261534f576000855561539d565b82601f10615360578054855561539d565b8280016001018555821561539d57600052602060002091601f016020900482015b8281111561539c578254825591600101919060010190615381565b5b5090506153aa91906153ee565b5090565b5080546153ba90615c76565b6000825580601f106153cc57506153eb565b601f0160209004906000526020600020908101906153ea91906153ee565b5b50565b5b808211156154075760008160009055506001016153ef565b5090565b6000604051905090565b600080fd5b600080fd5b600073ffffffffffffffffffffffffffffffffffffffff82169050919050565b600061544a8261541f565b9050919050565b61545a8161543f565b811461546557600080fd5b50565b60008135905061547781615451565b92915050565b60006020828403121561549357615492615415565b5b60006154a184828501615468565b91505092915050565b6000819050919050565b6154bd816154aa565b82525050565b600060a0820190506154d860008301886154b4565b6154e560208301876154b4565b6154f260408301866154b4565b6154ff60608301856154b4565b61550c60808301846154b4565b9695505050505050565b600081519050919050565b600082825260208201905092915050565b6000819050602082019050919050565b61554b8161543f565b82525050565b600061555d8383615542565b60208301905092915050565b6000602082019050919050565b600061558182615516565b61558b8185615521565b935061559683615532565b8060005b838110156155c75781516155ae8882615551565b97506155b983615569565b92505060018101905061559a565b5085935050505092915050565b600060208201905081810360008301526155ee8184615576565b905092915050565b600081519050919050565b600082825260208201905092915050565b6000819050602082019050919050565b61562b816154aa565b82525050565b600081519050919050565b600082825260208201905092915050565b60005b8381101561566b578082015181840152602081019050615650565b8381111561567a576000848401525b50505050565b6000601f19601f8301169050919050565b600061569c82615631565b6156a6818561563c565b93506156b681856020860161564d565b6156bf81615680565b840191505092915050565b6000610120830160008301516156e36000860182615622565b5060208301516156f66020860182615542565b5060408301516157096040860182615542565b50606083015161571c6060860182615542565b50608083015184820360808601526157348282615691565b91505060a083015184820360a086015261574e8282615691565b91505060c083015161576360c0860182615622565b5060e083015161577660e0860182615622565b506101008301518482036101008601526157908282615691565b9150508091505092915050565b60006157a983836156ca565b905092915050565b6000602082019050919050565b60006157c9826155f6565b6157d38185615601565b9350836020820285016157e585615612565b8060005b858110156158215784840389528151615802858261579d565b945061580d836157b1565b925060208a019950506001810190506157e9565b50829750879550505050505092915050565b6000602082019050818103600083015261584d81846157be565b905092915050565b600082825260208201905092915050565b600061587182615631565b61587b8185615855565b935061588b81856020860161564d565b61589481615680565b840191505092915050565b600060208201905081810360008301526158b98184615866565b905092915050565b600080fd5b600080fd5b7f4e487b7100000000000000000000000000000000000000000000000000000000600052604160045260246000fd5b61590382615680565b810181811067ffffffffffffffff82111715615922576159216158cb565b5b80604052505050565b600061593561540b565b905061594182826158fa565b919050565b600067ffffffffffffffff821115615961576159606158cb565b5b61596a82615680565b9050602081019050919050565b82818337600083830152505050565b600061599961599484615946565b61592b565b9050828152602081018484840111156159b5576159b46158c6565b5b6159c0848285615977565b509392505050565b600082601f8301126159dd576159dc6158c1565b5b81356159ed848260208601615986565b91505092915050565b600060208284031215615a0c57615a0b615415565b5b600082013567ffffffffffffffff811115615a2a57615a2961541a565b5b615a36848285016159c8565b91505092915050565b615a488161543f565b82525050565b600061012082019050615a64600083018c6154b4565b615a71602083018b615a3f565b615a7e604083018a615a3f565b615a8b6060830189615a3f565b8181036080830152615a9d8188615866565b905081810360a0830152615ab18187615866565b9050615ac060c08301866154b4565b615acd60e08301856154b4565b818103610100830152615ae08184615866565b90509a9950505050505050505050565b615af9816154aa565b8114615b0457600080fd5b50565b600081359050615b1681615af0565b92915050565b600080600080600060a08688031215615b3857615b37615415565b5b600086013567ffffffffffffffff811115615b5657615b5561541a565b5b615b62888289016159c8565b955050602086013567ffffffffffffffff811115615b8357615b8261541a565b5b615b8f888289016159c8565b9450506040615ba088828901615b07565b9350506060615bb188828901615468565b9250506080615bc288828901615468565b9150509295509295909350565b7f4e487b7100000000000000000000000000000000000000000000000000000000600052601160045260246000fd5b6000615c09826154aa565b91507fffffffffffffffffffffffffffffffffffffffffffffffffffffffffffffffff821415615c3c57615c3b615bcf565b5b600182019050919050565b7f4e487b7100000000000000000000000000000000000000000000000000000000600052602260045260246000fd5b60006002820490506001821680615c8e57607f821691505b60208210811415615ca257615ca1615c47565b5b50919050565b7f4e487b7100000000000000000000000000000000000000000000000000000000600052603260045260246000fd5b6000615ce2826154aa565b9150615ced836154aa565b925082821015615d0057615cff615bcf565b5b828203905092915050565b6000615d16826154aa565b9150615d21836154aa565b9250827fffffffffffffffffffffffffffffffffffffffffffffffffffffffffffffffff03821115615d5657615d55615bcf565b5b828201905092915050565b7f4e487b7100000000000000000000000000000000000000000000000000000000600052603160045260246000fd5b60008160601b9050919050565b6000615da882615d90565b9050919050565b6000615dba82615d9d565b9050919050565b615dd2615dcd8261543f565b615daf565b82525050565b6000819050919050565b615df3615dee826154aa565b615dd8565b82525050565b6000615e058286615dc1565b601482019150615e158285615de2565b602082019150615e258284615de2565b602082019150819050949350505050565b600081519050919050565b600081905092915050565b6000615e5782615e36565b615e618185615e41565b9350615e7181856020860161564d565b80840191505092915050565b6000615e898284615e4c565b915081905092915050565b6000819050919050565b615ea781615e94565b8114615eb257600080fd5b50565b600081519050615ec481615e9e565b92915050565b600060208284031215615ee057615edf615415565b5b6000615eee84828501615eb5565b9150509291505056fea26469706673582212200319b43368d51659665883f47bbe975e230c7ceb7c94d1b1446c9209388442a164736f6c634300080a0033",
  "immutableReferences": {},
  "source": "//SPDX-License-Identifier: MIT\n\npragma solidity >=0.7.0 <0.9.0;\n\ncontract SupplyChain {\n    // \n    struct Product {\n        uint Serial;\n        address Manufacturer;\n        address ProductID;\n        address Receiver;\n        string ProductName;\n        string ProductType;\n        uint ProductPrice;\n        mapping(uint => StateTime) State;\n    }\n    //\n    struct StateTime {\n        uint TimeStamp;\n        string State;\n    }\n    // \n    // struct Supplier {\n    //     address _product;\n    //     string Supply;\n    // }\n    // \n    struct ProductDetail {\n        uint Serial;\n        address Manufacturer;\n        address ProductID;\n        address Receiver;\n        string ProductName;\n        string ProductType;\n        uint ProductPrice;\n        uint TimeStamp;\n        string State;\n    }\n\n    mapping(address => Product) myproduct;\n    ProductDetail[] products;\n    address[] ProductAddresses;\n    string Manufacturer_Address;\n    ProductDetail[] N_Products;\n\n    // Supplier[] suppliers;\n\n    // \n    // function AddSupplier(address _addr, string memory _supplier) public {\n    //     suppliers.push(Supplier(_addr, _supplier));\n    // }\n\n    // \n    // function getSupplier() public view returns (Supplier[] memory) {\n    //     return suppliers;\n    // }\n\n    // Address\n    function enterAddress(string memory _Manufacturer_Address) public {\n        Manufacturer_Address = _Manufacturer_Address;\n    }\n\n    // Address\n    function getManufacturerAddress() public view returns (string memory) {\n        return Manufacturer_Address;\n    }\n\n    // 0productsN_Products\n    uint nonce;\n\n    function createProduct(\n        string memory _ProductName,\n        string memory _ProductType,\n        uint _ProductPrice,\n        address _Receiver,\n        address _Manufacturer\n    ) public {\n        nonce++;\n        address addr = address(\n            bytes20(\n                sha256(abi.encodePacked(msg.sender, block.timestamp, nonce))\n            )\n        );\n        myproduct[addr].Serial = 0;\n\n        myproduct[addr].Manufacturer = _Manufacturer;\n        myproduct[addr].ProductID = addr;\n        myproduct[addr].ProductName = _ProductName;\n        myproduct[addr].Receiver = _Receiver;\n        // Supplier memory _supply = Supplier(msg.sender);\n        // myproduct[addr].Supply[0] = _supply;\n\n        myproduct[addr].ProductType = _ProductType;\n        myproduct[addr].ProductPrice = _ProductPrice;\n        StateTime memory _state = StateTime(block.timestamp, \"SETING\");\n        myproduct[addr].State[myproduct[addr].Serial] = _state;\n\n        myproduct[addr].State[1].TimeStamp = 0;\n        myproduct[addr].State[2].TimeStamp = 0;\n        myproduct[addr].State[3].TimeStamp = 0;\n        myproduct[addr].State[4].TimeStamp = 0;\n\n        ProductAddresses.push(addr);\n        products.push(\n            ProductDetail(\n                myproduct[addr].Serial,\n                _Manufacturer,\n                addr,\n                _Receiver,\n                _ProductName,\n                _ProductType,\n                _ProductPrice,\n                block.timestamp,\n                \"SEETING\"\n            )\n        );\n\n        N_Products.push(\n            ProductDetail(\n                myproduct[addr].Serial,\n                myproduct[addr].Manufacturer,\n                myproduct[addr].ProductID,\n                myproduct[addr].Receiver,\n                myproduct[addr].ProductName,\n                myproduct[addr].ProductType,\n                myproduct[addr].ProductPrice,\n                myproduct[addr].State[0].TimeStamp,\n                myproduct[addr].State[0].State\n            )\n        );\n    }\n\n    // productsN_Products\n    function ChangeState(address addr) public {\n        myproduct[addr].Serial++;\n        if (myproduct[addr].Serial == 1) {\n            StateTime memory _state = StateTime(block.timestamp, \"PROCESS\");\n            myproduct[addr].State[myproduct[addr].Serial] = _state;\n            myproduct[addr].State[1].TimeStamp = block.timestamp;\n            Delete(addr);\n\n            products.push(\n                ProductDetail(\n                    myproduct[addr].Serial,\n                    myproduct[addr].Manufacturer,\n                    addr,\n                    myproduct[addr].Receiver,\n                    myproduct[addr].ProductName,\n                    myproduct[addr].ProductType,\n                    myproduct[addr].ProductPrice,\n                    block.timestamp,\n                    \"PROCESS\"\n                )\n            );\n\n            N_Products.push(\n                ProductDetail(\n                    myproduct[addr].Serial,\n                    myproduct[addr].Manufacturer,\n                    addr,\n                    myproduct[addr].Receiver,\n                    myproduct[addr].ProductName,\n                    myproduct[addr].ProductType,\n                    myproduct[addr].ProductPrice,\n                    block.timestamp,\n                    \"PROCESS\"\n                )\n            );\n        }\n        if (myproduct[addr].Serial == 2) {\n            StateTime memory _state = StateTime(block.timestamp, \"FINISH\");\n            myproduct[addr].State[myproduct[addr].Serial] = _state;\n            myproduct[addr].State[2].TimeStamp = block.timestamp;\n            Delete(addr);\n\n            products.push(\n                ProductDetail(\n                    myproduct[addr].Serial,\n                    myproduct[addr].Manufacturer,\n                    addr,\n                    myproduct[addr].Receiver,\n                    myproduct[addr].ProductName,\n                    myproduct[addr].ProductType,\n                    myproduct[addr].ProductPrice,\n                    block.timestamp,\n                    \"FINISH\"\n                )\n            );\n\n            N_Products.push(\n                ProductDetail(\n                    myproduct[addr].Serial,\n                    myproduct[addr].Manufacturer,\n                    addr,\n                    myproduct[addr].Receiver,\n                    myproduct[addr].ProductName,\n                    myproduct[addr].ProductType,\n                    myproduct[addr].ProductPrice,\n                    block.timestamp,\n                    \"FINISH\"\n                )\n            );\n        }\n        if (myproduct[addr].Serial == 3) {\n            StateTime memory _state = StateTime(block.timestamp, \"IN_TRANSIT\");\n            myproduct[addr].State[myproduct[addr].Serial] = _state;\n            myproduct[addr].State[3].TimeStamp = block.timestamp;\n            Delete(addr);\n\n            products.push(\n                ProductDetail(\n                    myproduct[addr].Serial,\n                    myproduct[addr].Manufacturer,\n                    addr,\n                    myproduct[addr].Receiver,\n                    myproduct[addr].ProductName,\n                    myproduct[addr].ProductType,\n                    myproduct[addr].ProductPrice,\n                    block.timestamp,\n                    \"IN_TRANSIT\"\n                )\n            );\n\n            N_Products.push(\n                ProductDetail(\n                    myproduct[addr].Serial,\n                    myproduct[addr].Manufacturer,\n                    addr,\n                    myproduct[addr].Receiver,\n                    myproduct[addr].ProductName,\n                    myproduct[addr].ProductType,\n                    myproduct[addr].ProductPrice,\n                    block.timestamp,\n                    \"IN_TRANSIT\"\n                )\n            );\n        }\n        if (myproduct[addr].Serial == 4) {\n            StateTime memory _state = StateTime(block.timestamp, \"ARRIVED\");\n            myproduct[addr].State[myproduct[addr].Serial] = _state;\n            myproduct[addr].State[4].TimeStamp = block.timestamp;\n            Delete(addr);\n\n            products.push(\n                ProductDetail(\n                    myproduct[addr].Serial,\n                    myproduct[addr].Manufacturer,\n                    addr,\n                    myproduct[addr].Receiver,\n                    myproduct[addr].ProductName,\n                    myproduct[addr].ProductType,\n                    myproduct[addr].ProductPrice,\n                    block.timestamp,\n                    \"ARRIVED\"\n                )\n            );\n\n            N_Products.push(\n                ProductDetail(\n                    myproduct[addr].Serial,\n                    myproduct[addr].Manufacturer,\n                    addr,\n                    myproduct[addr].Receiver,\n                    myproduct[addr].ProductName,\n                    myproduct[addr].ProductType,\n                    myproduct[addr].ProductPrice,\n                    block.timestamp,\n                    \"ARRIVED\"\n                )\n            );\n        }\n    }\n\n    // \n    function getAllProductAddr() external view returns (address[] memory) {\n        return ProductAddresses;\n    }\n\n    // \n    function getAllProduct() public view returns (ProductDetail[] memory) {\n        return products;\n    }\n\n    // \n    function getProductState(\n        address id\n    ) public view returns (uint, uint, uint, uint, uint) {\n        return (\n            myproduct[id].State[0].TimeStamp,\n            myproduct[id].State[1].TimeStamp,\n            myproduct[id].State[2].TimeStamp,\n            myproduct[id].State[3].TimeStamp,\n            myproduct[id].State[4].TimeStamp\n        );\n    }\n\n    // \n    function getProduct(\n        address id\n    )\n        public\n        view\n        returns (\n            uint,\n            address,\n            address,\n            address,\n            string memory,\n            string memory,\n            uint,\n            uint,\n            string memory\n        )\n    {\n        uint _serial = myproduct[id].Serial;\n        address _id = id;\n        return (\n            myproduct[id].Serial,\n            myproduct[id].Manufacturer,\n            myproduct[id].ProductID,\n            myproduct[_id].Receiver,\n            myproduct[_id].ProductName,\n            myproduct[_id].ProductType,\n            myproduct[_id].ProductPrice,\n            myproduct[_id].State[_serial].TimeStamp,\n            myproduct[_id].State[_serial].State\n        );\n    }\n\n    // N_Products\n    function Delete(address id) public {\n        for (uint i = 0; i < N_Products.length; i++) {\n            if (N_Products[i].ProductID == id) {\n                for (uint j = i; j < N_Products.length - 1; j++) {\n                    N_Products[j] = N_Products[j + 1];\n                }\n                N_Products.pop();\n            }\n        }\n    }\n\n    // N_Products\n    function N_Product() public view returns (ProductDetail[] memory) {\n        return N_Products;\n    }\n}\n",
  "sourcePath": "C:\\Users\\User\\Blockchain_Supplychain\\Blockchain_Supplychain\\contracts\\supplychain.sol",
  "compiler": {
    "name": "solc",
    "version": "0.8.10+commit.fc410830.Emscripten.clang"
  },
  "schemaVersion": "3.4.16",
  "updatedAt": "2023-11-07T05:36:14.298Z",
  "networkType": "ethereum",
  "devdoc": {
    "kind": "dev",
    "methods": {},
    "version": 1
  },
  "userdoc": {
    "kind": "user",
    "methods": {},
    "version": 1
  }
}